:020000040800F2
:10000000400D00209D020008D95C0008DD5C00085E
:10001000E15C0008E55C0008E95C00080000000005
:10002000000000000000000000000000ED5C00087F
:10003000F15C000800000000F55C0008015D0008AC
:10004000B7020008B7020008B7020008B7020008AC
:10005000B7020008B7020008B7020008B70200089C
:10006000B7020008B7020008B7020008B70200088C
:10007000B7020008B7020008B7020008B70200087C
:10008000B7020008B7020008FD5C0008B7020008CC
:100090003D5D0008B7020008B7020008B70200087B
:1000A000395D0008F95C0008B7020008B7020008D3
:1000B000B7020008315D0008B7020008B702000867
:1000C000B7020008B7020008B7020008B70200082C
:1000D000B7020008B7020008B7020008B70200081C
:1000E000B7020008B7020008B7020008B70200080C
:1000F000B7020008B7020008B7020008B7020008FC
:10010000B7020008B7020008355D0008B702000812
:10011000B7020008B7020008B7020008B7020008DB
:10012000B7020008B7020008B7020008B7020008CB
:10013000B7020008B7020008B7020008B7020008BB
:10014000415D0008B7020008B7020008B7020008C6
:10015000B7020008B7020008B7020008B70200089B
:10016000B7020008B7020008B7020008B70200088B
:10017000B7020008B7020008B7020008B70200087B
:10018000B7020008B7020008DFF80CD006F060F8EC
:1001900000480047C9010008400D0020B0B50546E1
:1001A00045F255500C4601F08DFF284601F090FFB6
:1001B000204601F093FF01F097FFBDE8B04001F049
:1001C0009BBF00BF01F090BF4FF4A06000F058F952
:1001D00003F054FB72B605F0A1FB40F2C400C2F27A
:1001E0000000006841F25971CDF2B711A0FB010186
:1001F0004FF0FF3000EB5130B0F1807F02D300BFF1
:10020000FEE700BF4EF21001CEF2000148604EF64C
:100210002350CEF200000022072302708A600B6098
:10022000027003F00DFA4CF61450032103F010FC99
:1002300003F070FA03F074FC04F0C8F904F0FEF95E
:1002400062B605F095FD40F63C10C2F200000121B7
:10025000017040F25800C2F2000000694FF0013115
:10026000016040F2400041F28831C2F20000C0F665
:10027000B83140F2DC52C0E90222016140F21020A4
:10028000C2F200004FF4FA614FF44872C0E9002254
:10029000816000BF05F084FDFCE700000648804750
:1002A00006480047FEE7FEE7FEE7FEE7FEE7FEE75B
:1002B000FEE7FEE7FEE7FEE7C1020008890100084D
:1002C00080B582B04EF6885CCEF2000CDCF80020DF
:1002D00043F6000142F47002C4F20201CCF800209F
:1002E0000B684FF6FF7243F001030B6000238B6035
:1002F000086845F2084ECFF6F662C0F2407E104024
:100300000860C1F804E0086820F480200860CB6031
:1003100001930093086840F480300860086800F496
:1003200000300090019801300190009818B90198B0
:10033000B0F5A04FF2D10868C0F34040009000989B
:10034000012849D1086C40F08050086447F2000051
:10035000C4F20000026842F440420260886888608B
:10036000886840F400408860886840F4A050886045
:10037000C1F804E0086840F08070086008688001F7
:1003800009D4086880015CBF08685FEA801002D465
:1003900008688001F2D540F20570C1F80004886851
:1003A00020F003008860886840F00200886000BF89
:1003B000886800F00C0008280ED0886800F00C0057
:1003C000082809D0886800F00C00082804D0886844
:1003D00000F00C000828EBD14FF000604CF8800CC6
:1003E00002B080BD43F60400C4F20200426842F24B
:1003F0000041C0F2F401C2F3810280B50FF208039C
:1004000003EB82039F4600BF00F028B800F004B859
:1004100000F008B800F022B841F20021C0F27A01E1
:100420001CE000BFD0F800C00368026803F03F037F
:10043000C2F3881E5FEA4C2241F20022C0F27A0227
:1004400058BF0A46B2FBF3F102680223C2F301422D
:100450000EFB01F103EB4202B1FBF2F140F2C402E8
:10046000C2F200021160406846F63453C0F3031034
:10047000C0F60003185C21FA00F0106080BD000097
:1004800040F080604EF60C5140F0FD70CEF200015D
:100490000860704710B5C17800294EF20011CEF205
:1004A00000011DD04EF60C52CEF200021268072356
:1004B00023EA12220F23C2F1040C23FA02FE42782F
:1004C00084785FFA8CF390F800C09A4004EA0E0337
:1004D0001A43120101EB0C0383F8002301E000BF73
:1004E00080310078012300F01F0203FA02F2C0F30A
:1004F000421041F8202010BD4FF68072C1F6FF7205
:10050000114008434EF60851CEF2000108607047D2
:1005100000294EF61051CEF200010A680CBF22EA03
:1005200000001043086070474EF21001CEF2000147
:100530000A68042822F0040208BF04320A607047E7
:1005400080B54FF48070012102F054F84FF48070B0
:100550000021BDE8804002F04DB800BF10B54268F0
:100560004FF6FF63CFF6FF4302EA030C0B680A79EC
:1005700043EA0C0343EA0222426082684FF2FD73B1
:10058000CCF2FF0302EA030E0A69D1E902C342EA90
:100590000E024C791A4342EA0C0242EA440282609B
:1005A000C26A097D22F470020139C9B242EA0151DE
:1005B000C16210BD002101608180C0E902110161AA
:1005C00001210175704700BF80B542F2043CC4F2BE
:1005D000010CDCF8002043F2E003CFF6FC7302EAE2
:1005E000030ED0E90031D0E9022043EA0E0319439B
:1005F00011430843CCF8000080BD00BF0021C0E9D2
:100600000011C0E9021170478268002922F001023E
:1006100018BF01328260704742684FF6FF53CFF631
:100620003F731A4011434160704700BF41628262CC
:10063000704700BF426822F01F02114341607047BB
:1006400042F20431C4F201010A68002822F40002D7
:1006500018BF02F500020A60704700BF42F2043181
:10066000C4F201010A68002822F4800218BF02F5D2
:1006700080020A60704700BFB0B501EB410C4FF03B
:10068000100E092988BFACF11E0C88BF4FF00C0E6C
:1006900050F80E40072505FA0CF5AC4303FA0CF3AD
:1006A00023432C256FF0400440F80E300D2A38BF4C
:1006B000302538BF6FF0220402EB8203072A3CBFCB
:1006C00034256FF004041A1943591F249440A3439E
:1006D000914019434151B0BD816841F08041816032
:1006E000704700BF8068C0F380707047826800293F
:1006F00022F4806218BF02F580628260704700BFFA
:100700008268002922F0020218BF0232826070471C
:1007100042684EF20003CFF6FF7322F4604203EB0F
:1007200041311143416070474268002922F4006260
:1007300018BF02F500624260704700BFC06C80B213
:10074000704700BF42F20830C4F2010000687047F1
:100750008268002922F4807218BF02F580728260DC
:10076000704700BF8268002922F4007218BF02F5AA
:1007700000728260704700BF42F20431C4F201018E
:100780000A68002822F4005218BF02F500520A60DD
:10079000704700BFB0B501EB410C4FF0100E0929B6
:1007A00088BFACF11E0C88BF4FF00C0E50F80E4005
:1007B000072505FA0CF5AC4303FA0CF3234340F884
:1007C0000E30836BFC2565EA13552A440332D5B2FB
:1007D000AD0055FA82F21F259540AB439140194375
:1007E0008163B0BD826B0023CFF6F07322F4401218
:1007F00003EB015111438163704700BF81B00023B7
:10080000009300900098084400900098026001B0A6
:10081000704700BF826822F47022114381607047E4
:10082000826822F44012114381607047816841F46C
:1008300080018160704700BF8068C0F380507047BE
:100840004268002922F4806218BF02F5806242608B
:10085000704700BF4268002922F4805218BF02F599
:1008600080524260704700BF81B000220092009029
:1008700000980844283000900098006880B201B0C9
:10088000704700BFC9B2012303FA01F1002A426890
:100890000CBF22EA01011143416070470068084023
:1008A00018BF0120704700BFC9430160704700BFF7
:1008B000D0F804C00068CBB201229A4010EA11209F
:1008C00002EA0C0218BF0120002A18BF01221040C2
:1008D000704700BF6FEA112101607047016821F085
:1008E000010101600021016041608160C16001611E
:1008F00046F20F41C4F2020188424FF021014161EA
:1009000020DC46F26F01C4F2020188423EDC46F26E
:100910003F01C4F20201884274DC46F21001C4F2C5
:100920000201884200F0C48046F22801C4F20201AC
:10093000884240F0018146F20800C4F202004FF400
:100940007461F8E046F26F41C4F2020188423BDC78
:1009500046F23F41C4F20201884267DC46F2104190
:10096000C4F20201884200F0A98046F22841C4F294
:100970000201884201BF46F20800C4F202004FF4AF
:100980007461C0F8001408BF7047D5E046F29F01BB
:10099000C4F20201884261DC46F27001C4F2020135
:1009A000884200F0938046F28801C4F20201884236
:1009B00040F0C28046F20800C4F2020040F64071E6
:1009C000C2F200014160704746F29F41C4F2020149
:1009D000884259DC46F27041C4F20201884200F0BC
:1009E0007F8046F28841C4F20201884240F0A48030
:1009F00046F20C4040F64071C4F20200C2F200011F
:100A000099E000BF46F24001C4F2020188426FD073
:100A100046F25801C4F20201884240F08D8046F24D
:100A20000800C4F202004FF0746184E046F24041D5
:100A3000C4F20201884263D046F25841C4F2020176
:100A4000884201BF46F20800C4F202004FF0746110
:100A5000C0F8001408BF70476EE000BF46F2A00166
:100A6000C4F20201884255D046F2B801C4F2020134
:100A7000884201BF46F20800C4F202004FF03D5127
:100A8000416008BF704757E046F2A041C4F202013E
:100A9000884249D046F2B841C4F20201884218BFE8
:100AA000704746F20C40C4F202004FF03D5142E064
:100AB00046F20800C4F202003D213CE046F2080084
:100AC000C4F202003D21C0F80014704746F208004D
:100AD000C4F202003D21C2F200014160704700BF34
:100AE00046F20C403D21C4F20200C2F2000122E0B5
:100AF00046F20800C4F202004FF474111BE000BF7C
:100B000046F20800C4F202004FF47411C0F8001459
:100B1000704700BF46F208000021C4F20200C2F292
:100B20003D014160704700BF46F20C400021C4F215
:100B30000200C2F23D010160704700BF2DE9F04F95
:100B4000026848F23F03CFF21C03D1F800901A402C
:100B5000D1E9038E01F1140C9CE8F01042EA09027D
:100B600042EA080222432A4332438B6A3A43D1E9DC
:100B70000DAB42EA0C021A4342EA0A0242EA0B02B5
:100B800002604269D1E90B3722F007021A433A4367
:100B90004261C0F804E04A6882608968C160BDE8CB
:100BA000F08F00BF80B53C2105F002FB80BD00BF87
:100BB0000268002922F0010218BF0132026070476A
:100BC0000268002922F4004218BF02F500420260C8
:100BD000704700BF0268002922F0200218BF2032AF
:100BE0000260704741607047406880B2704700BF44
:100BF0000368002A23F4002318BF03F500230360D1
:100C0000016170470268002922F4802218BF02F5B2
:100C100080220260704700BF1023002A08BF0C2307
:100C2000C15070470068C0F3C0407047006800F0D2
:100C300001007047406900F03800704780B546F207
:100C40000442C4F2020246F2000C02F10C0EC4F29D
:100C5000020C0CF5806370453EBF46F20003C4F2FF
:100C600002030CF10402880058BF1A4610680840BD
:100C700040F67D71C0F67D71084018BF012080BD2F
:100C800010B546F20C4246F2080EC4F2020240F6DB
:100C90007D73C4F2020E02F1040CC0F67D730EF5F2
:100CA00080640B4060453EBF46F20804C4F2020473
:100CB0000EF10402880058BF2246136010BD00BF29
:100CC0000B0604D543695AB143F080034361802980
:100CD00013D05AB1026801F01E0111430CE000BFAD
:100CE00023F080028029426108BF70476FF01E0226
:100CF000036862EA010119400160704740F63C7CDC
:100D0000C0F63C7C11EA0C0F06D0036803EAD1233D
:100D100003F01E0303E000BF436903F08003B0B596
:100D200046F2044246F20004C4F20202C4F2020493
:100D300002F10C0E04F5806570453EBF46F20005D9
:100D4000C4F20205221D880058BF2A4610680CF123
:100D500041121140084018BF0120002B18BF012389
:100D60001840B0BD10B546F20C4246F2080EC4F26F
:100D7000020240F67D73C4F2020E02F1040CC0F6CA
:100D80007D730EF580640B4060453EBF46F208045B
:100D9000C4F202040EF10402880058BF2246136018
:100DA00010BD000043F60041C4F202010870704714
:100DB00043F60041C4F202010A68002822F480725E
:100DC00018BF02F580720A60704700BF43F6004109
:100DD000C4F202010A68002822F4007218BF02F56A
:100DE00000720A60704700BF43F60041C4F202017E
:100DF0000A68002822F4806218BF02F580620A6047
:100E0000704700BF43F60040C4F20200016841F49D
:100E100000610160704700BF43F60040C4F2020069
:100E2000016841F480510160704700BF43F60440FF
:100E3000C4F20200C168B1F1FF3FC8BF704740F281
:100E40002311C4F26751016048F6AB11CCF6EF51A3
:100E50000160704743F61040C4F20200016841F09F
:100E600000410160704700BF81B043F60C42092386
:100E7000C4F202028DF8023013684FF4407C03295B
:100E800038BF4FEA012CD9030CD41168C9060BD422
:100E90001168C9050AD4116811F0EF0F08D00721B5
:100EA0000FE000BF01210CE006210AE0022108E06A
:100EB000116889074FF0080158BF092101E000BF00
:100EC00001218DF802109DF80210012912D111683C
:100ED000C903F5D41168C90608D41168C90507D437
:100EE000116811F0EF0FE3D00721EAE70621E8E7E8
:100EF0000221E6E79DF80210092959D1516821F431
:100F000040715160516841EA0C015160516821F013
:100F1000F80151605168084340F002005060506889
:100F200040F48030506009208DF803001068C00341
:100F30000CD41068C0060BD41068C0050AD4106821
:100F400010F0EF0F08D007200FE000BF01200CE0E9
:100F500006200AE0022008E0106880074FF0080031
:100F600058BF092001E000BF01208DF803009DF863
:100F70000300012812D11068C003F5D41068C00620
:100F800008D41068C00507D4106810F0EF0FE3D044
:100F90000720EAE70620E8E70220E6E79DF80310CD
:100FA000506820F002005060506820F0F800506057
:100FB000084601B0704700BF81B043F60C400921DC
:100FC000C4F202008DF803100168C9030CD4016853
:100FD000C9060BD40168C9050AD4016811F0EF0FE6
:100FE00008D007210FE000BF01210CE006210AE034
:100FF000022108E0016889074FF0080158BF092164
:1010000001E000BF01218DF803109DF803100129B4
:1010100012D10168C903F5D40168C90608D4016872
:10102000C90507D4016811F0EF0FE3D00721EAE703
:101030000621E8E70221E6E79DF8030001B07047CA
:1010400081B043F60C420921C4F202028DF802106D
:101050001168C9030CD41168C9060BD41168C905FD
:101060000AD4116811F0EF0F08D007210FE000BF7C
:1010700001210CE006210AE0022108E0116889073D
:101080004FF0080158BF092101E000BF01218DF890
:1010900002109DF80210012912D11168C903F5D47C
:1010A0001168C90608D41168C90507D4116811F080
:1010B000EF0FE3D00721EAE70621E8E70221E6E7A0
:1010C0009DF80210092955D153684FF4407123F45B
:1010D000407353605368032838BF010243EA01009C
:1010E0005060506840F004005060506840F4803018
:1010F000506009208DF803001068C0030CD41068FC
:10110000C0060BD41068C0050AD4106810F0EF0FA9
:1011100008D007200FE000BF01200CE006200AE005
:10112000022008E0106880074FF0080058BF09202F
:1011300001E000BF01208DF803009DF803000128A5
:1011400012D11068C003F5D41068C00608D4106826
:10115000C00507D4106810F0EF0FE3D00720EAE7CE
:101160000620E8E70220E6E79DF80310506820F02B
:1011700004005060084601B0704700BF81B043F6DC
:101180000C420921C4F202028DF802101168C90351
:101190000CD41168C9060BD41168C9050AD41168AA
:1011A00011F0EF0F08D007210FE000BF01210CE084
:1011B00006210AE0022108E0116889074FF00801C2
:1011C00058BF092101E000BF01218DF802109DF8F0
:1011D0000210012912D11168C903F5D41168C9069A
:1011E00008D41168C90507D4116811F0EF0FE3D0D6
:1011F0000721EAE70621E8E70221E6E79DF8021069
:10120000092955D153684FF4407123F4407353605A
:101210005368032838BF010243EA01005060506858
:1012200040F004005060506840F480305060092065
:101230008DF803001068C0030CD41068C0060BD4EE
:101240001068C0050AD4106810F0EF0F08D007200E
:101250000FE000BF01200CE006200AE0022008E0B9
:10126000106880074FF0080058BF092001E000BF58
:1012700001208DF803009DF80300012812D11068A9
:10128000C003F5D41068C00608D41068C00507D4A0
:10129000106810F0EF0FE3D00720EAE70620E8E738
:1012A0000220E6E79DF80310506820F0040050602B
:1012B000084601B0704700BF81B043F60C420921D7
:1012C000C4F202028DF802101168C9030CD411682F
:1012D000C9060BD41168C9050AD4116811F0EF0FC3
:1012E00008D007210FE000BF01210CE006210AE031
:1012F000022108E0116889074FF0080158BF092151
:1013000001E000BF01218DF802109DF802100129B3
:1013100012D11168C903F5D41168C90608D411683F
:10132000C90507D4116811F0EF0FE3D00721EAE7F0
:101330000621E8E70221E6E79DF80210092955D1C8
:1013400053684FF4407123F440735360536803288B
:1013500038BF010243EA01005060506840F4004089
:101360005060506840F48030506009208DF80300D0
:101370001068C0030CD41068C0060BD41068C005F8
:101380000AD4106810F0EF0F08D007200FE000BF5C
:1013900001200CE006200AE0022008E01068800727
:1013A0004FF0080058BF092001E000BF01208DF870
:1013B00003009DF80300012812D11068C003F5D482
:1013C0001068C00608D41068C00507D4106810F073
:1013D000EF0FE3D00720EAE70620E8E70220E6E780
:1013E0009DF80310506820F400405060084601B09A
:1013F000704700BF80B581B043F60C4E0921C4F29E
:10140000020E8DF80210DEF80010C90310D4DEF8C9
:101410000010C90610D4DEF80010C90510D4DEF89B
:10142000001011F0EF0F0FD04FF0070C14E000BFC9
:101430004FF0010C10E000BF4FF0060C0CE000BFB5
:101440004FF0020C08E000BFDEF800104FF0080C6F
:10145000890758BF4FF0090C8DF802C003E000BFA8
:1014600001218DF802109DF80210012926D1DEF825
:101470000010C903F4D4DEF80010C9060CD4DEF85D
:101480000010C9050CD4DEF8001011F0EF0F0BD0DE
:1014900007218DF80210E6E706218DF80210E2E739
:1014A00002218DF80210DEE7DEF8001089074FF008
:1014B000080158BF09218DF80210D4E79DF802C039
:1014C000BCF1090F5ED1DEF8041021F44071CEF8B2
:1014D0000410DEF8041041F44071CEF80410DEF878
:1014E000041041F00101CEF80410C0E900230920E6
:1014F0008DF80300DEF80000C0030FD4DEF8000012
:10150000C0060DD4DEF80000C0050BD4DEF80000E4
:1015100010F0EF0F08D007200FE000BF01200CE013
:1015200006200AE0022008E0DEF8000080074FF005
:10153000080058BF092000E001208DF803009DF845
:101540000300012816D1DEF80000C003F4D4DEF851
:101550000000C0060AD4DEF80000C00508D4DEF89A
:10156000000010F0EF0FDFD00720E6E70620E4E7E9
:101570000220E2E79DF803C0DEF8040020F001003D
:10158000CEF80400604601B080BD00BF81B043F6D4
:101590000C430922C4F202038DF802201A68D20318
:1015A0000CD41A68D2060BD41A68D2050AD41A6869
:1015B00012F0EF0F08D007220FE000BF01220CE06D
:1015C00006220AE0022208E01A6892074FF0080299
:1015D00058BF092201E000BF01228DF802209DF8CA
:1015E0000220012A12D11A68D203F5D41A68D20651
:1015F00008D41A68D20507D41A6812F0EF0FE3D0A6
:101600000722EAE70622E8E70222E6E79DF8022041
:10161000092A4DD15A6822F440725A605A6842F43D
:1016200000725A605A6842F001025A600160092053
:101630008DF803001868C0030CD41868C0060BD4DA
:101640001868C0050AD4186810F0EF0F08D00720FA
:101650000FE000BF01200CE006200AE0022008E0B5
:10166000186880074FF0080058BF092001E000BF4C
:1016700001208DF803009DF80300012812D118689D
:10168000C003F5D41868C00608D41868C00507D48C
:10169000186810F0EF0FE3D00720EAE70620E8E72C
:1016A0000220E6E79DF80320586820F0010058600A
:1016B000104601B0704700BF81B043F60C430922C9
:1016C000C4F202038DF802201A68D2030CD41A68FF
:1016D000D2060BD41A68D2050AD41A6812F0EF0F9A
:1016E00008D007220FE000BF01220CE006220AE02A
:1016F000022208E01A6892074FF0080258BF092238
:1017000001E000BF01228DF802209DF80220012A8D
:1017100012D11A68D203F5D41A68D20608D41A680E
:10172000D20507D41A6812F0EF0FE3D00722EAE7D8
:101730000622E8E70222E6E79DF80220092A4DD1B9
:101740005A6822F440725A605A6842F480725A60B1
:101750005A6842F001025A60018009208DF80300A6
:101760001868C0030CD41868C0060BD41868C005EC
:101770000AD4186810F0EF0F08D007200FE000BF60
:1017800001200CE006200AE0022008E0186880072B
:101790004FF0080058BF092001E000BF01208DF87C
:1017A00003009DF80300012812D11868C003F5D486
:1017B0001868C00608D41868C00507D4186810F067
:1017C000EF0FE3D00720EAE70620E8E70220E6E78C
:1017D0009DF80320586820F001005860104601B0C1
:1017E000704700BF81B043F60C430922C4F20203E4
:1017F0008DF802201A68D2030CD41A68D2060BD4D2
:101800001A68D2050AD41A6812F0EF0F08D007221E
:101810000FE000BF01220CE006220AE0022208E0ED
:101820001A6892074FF0080258BF092201E000BF72
:1018300001228DF802209DF80220012A12D11A6897
:10184000D203F5D41A68D20608D41A68D20507D490
:101850001A6812F0EF0FE3D00722EAE70622E8E762
:101860000222E6E79DF80220092A4BD15A6822F4A9
:1018700040725A605A685A605A6842F001025A60CF
:10188000017009208DF803001868C0030CD4186893
:10189000C0060BD41868C0050AD4186810F0EF0F02
:1018A00008D007200FE000BF01200CE006200AE06E
:1018B000022008E0186880074FF0080058BF092090
:1018C00001E000BF01208DF803009DF8030001280E
:1018D00012D11868C003F5D41868C00608D4186877
:1018E000C00507D4186810F0EF0FE3D00720EAE72F
:1018F0000620E8E70220E6E79DF80320586820F07C
:1019000001005860104601B0704700BF43F6084020
:10191000C4F20200C168C90708BF704742F63B2104
:10192000C0F61901016046F67F61C4F65D410160B1
:10193000704700BF43F61440C4F20200016841F052
:1019400001010160704700BF81B043F60C420923DA
:10195000C4F202028DF803301368DB030CD4136861
:10196000DB060BD41368DB050AD4136813F0EF0F02
:1019700008D007230FE000BF01230CE006230AE094
:10198000022308E013689B074FF0080358BF0923A0
:1019900001E000BF01238DF803309DF80330012BD7
:1019A00012D11368DB03F5D41368DB0608D413687F
:1019B000DB0507D4136813F0EF0FE3D00723EAE742
:1019C0000623E8E70223E6E79DF80330092B08D158
:1019D000B2F80AC000292CEA000308BF4CEA000351
:1019E000538101B0704700BF81B043F60C42092318
:1019F000C4F202028DF803301368DB030CD41368C1
:101A0000DB060BD41368DB050AD4136813F0EF0F61
:101A100008D007230FE000BF01230CE006230AE0F3
:101A2000022308E013689B074FF0080358BF0923FF
:101A300001E000BF01238DF803309DF80330012B36
:101A400012D11368DB03F5D41368DB0608D41368DE
:101A5000DB0507D4136813F0EF0FE3D00723EAE7A1
:101A60000623E8E70223E6E79DF80330092B08D1B7
:101A7000B2F80EC000292CEA000308BF4CEA0003AC
:101A8000D38101B0704700BF43F61741C4F2020191
:101A90000A7802F07F0210430870704781B043F665
:101AA0000C420923C4F202028DF803301368DB03F1
:101AB0000CD41368DB060BD41368DB050AD4136857
:101AC00013F0EF0F08D007230FE000BF01230CE055
:101AD00006230AE0022308E013689B074FF008037F
:101AE00058BF092301E000BF01238DF803309DF8A2
:101AF0000330012B12D11368DB03F5D41368DB0626
:101B000008D41368DB0507D4136813F0EF0FE3D094
:101B10000723EAE70623E8E70223E6E79DF8033018
:101B2000092B08D1B2F80AC000294CEA000308BF0B
:101B30002CEA0003538101B0704700BF81B043F627
:101B40000C420923C4F202028DF803301368DB0350
:101B50000CD41368DB060BD41368DB050AD41368B6
:101B600013F0EF0F08D007230FE000BF01230CE0B4
:101B700006230AE0022308E013689B074FF00803DE
:101B800058BF092301E000BF01238DF803309DF801
:101B90000330012B12D11368DB03F5D41368DB0685
:101BA00008D41368DB0507D4136813F0EF0FE3D0F4
:101BB0000723EAE70623E8E70223E6E79DF8033078
:101BC000092B08D1B2F80EC000294CEA000308BF67
:101BD0002CEA0003D38101B0704700BF81B043F607
:101BE0000C410922C4F202018DF803200A68D203D5
:101BF0000CD40A68D2060BD40A68D2050AD40A6843
:101C000012F0EF0F08D007220FE000BF01220CE016
:101C100006220AE0022208E00A6892074FF0080252
:101C200058BF092201E000BF01228DF803209DF872
:101C30000320012A12D10A68D203F5D40A68D20619
:101C400008D40A68D20507D40A6812F0EF0FE3D06F
:101C50000722EAE70622E8E70222E6E79DF80320EA
:101C6000092A08BF487201B0704700BF80B581B033
:101C700043F60C4E0923C4F2020E8DF80330DEF851
:101C80000030DB0310D4DEF80030DB0610D4DEF8C1
:101C90000030DB0510D4DEF8003013F0EF0F0FD06A
:101CA0004FF0070C14E000BF4FF0010C10E000BF34
:101CB0004FF0060C0CE000BF4FF0020C08E000BF34
:101CC000DEF800304FF0080C9B0758BF4FF0090CAE
:101CD0008DF803C003E000BF01238DF803309DF8A9
:101CE0000330012B26D1DEF80030DB03F4D4DEF81C
:101CF0000030DB060CD4DEF80030DB050CD4DEF857
:101D0000003013F0EF0F0BD007238DF80330E6E718
:101D100006238DF80330E2E702238DF80330DEE777
:101D2000DEF800309B074FF0080358BF09238DF8F9
:101D30000330D4E79DF80330092B08D19EF8083012
:101D4000084303F00F03104318438EF8080001B056
:101D500080BD00BF43F61441C4F202010A7802F0CC
:101D6000EF020A700A7810430870704743F6144176
:101D7000C4F202010A7802F0F3020A700A781043F2
:101D80000870704781B043F60C40C4F20200017A3B
:101D900041F00201017209218DF803100168C903A5
:101DA0000CD40168C9060BD40168C9050AD40168BE
:101DB00011F0EF0F08D007210FE000BF01210CE068
:101DC00006210AE0022108E0016889074FF00801B6
:101DD00058BF092101E000BF01218DF803109DF8D3
:101DE0000310012912D10168C903F5D40168C9069D
:101DF00008D40168C90507D4016811F0EF0FE3D0DA
:101E00000721EAE70621E8E70221E6E79DF803005B
:101E100001B0704743F61440C4F202000068C0F3FA
:101E20004710704743F61640C4F20200008870471E
:101E300043F61A40C4F202000088704743F6164089
:101E4000C4F202000088704743F61A40C4F2020050
:101E50000088704743F61540C4F202000078AA38A3
:101E600018BF0120704700BF43F61440C4F20200BF
:101E7000007800F00C007047002943F61041C4F2CE
:101E800002010A680CBF22EA000010430860704794
:101E900043F60C41C4F202010968084018BF012052
:101EA000704700BF43F60C41C4F20201086070475E
:101EB00043F60C40C4F202000168C90344BF01208C
:101EC00070470168C90644BF062070470168C9050C
:101ED00044BF02207047016811F0EF0F1CBF0720BC
:101EE0007047006880074FF0080058BF092070470E
:101EF00000F13E4000F1FF704FEAB0200A2888BF91
:101F0000704710B546F60851C0F6000151F8204060
:101F10000121204600F03EFB20460021BDE8104094
:101F200000F038BB2DE9F04FD1F800A000234FF0AE
:101F3000020C4FF0010E4FF00309022610E000BF23
:101F4000C26802EA0802C260CA79C468B240224389
:101F5000C2600233102B06F1040608BFBDE8F08F03
:101F60000EFA03F41AEA040F2FD0B71E056809FA17
:101F700007F26FEA020B25EA020202600A7905689D
:101F800002FA07F8013A45EA0805012A056013D864
:101F9000826802EA0B0282604A7991F806808568BD
:101FA000BA402A4382604268A243426008FA03F2C0
:101FB000446892B222434260C26802EA0B02C260E5
:101FC000CA79C468BA402243C2600CFA03F51AEA1F
:101FD000050FBED0046809FA06F26FEA020824EA87
:101FE000020202600A79046802FA06F7013A3C43E9
:101FF000012A0460A4D8826802EA080282604A7951
:102000008C798768B2403A43826042685F1CAA4379
:10201000426004FA07F244684FF6FE752A402243F4
:1020200042608DE74FF6FF710022C0E90012704751
:1020300081B04FF480320092009A0A430092009AD5
:10204000C261C1610099C161C1690091C06900901C
:1020500001B070470069084018BF0120704700BFF9
:10206000006980B2704700BF4069084018BF012076
:10207000704700BF406980B2704700BF018370475E
:1020800041837047002A0CBF41830183704700BF22
:102090004161704742695140416170471C2303EA26
:1020A000810C6FF0030303EA510108440F23016A16
:1020B00003FA0CF399430162016A02FA0CF211432C
:1020C0000162704743F20001C4F2000108607047EA
:1020D00043F20401C4F200010860704743F20801B2
:1020E000C4F200010860704743F20000C4F200002F
:1020F0004AF6AA210160704743F20000C4F20000D2
:102100004CF6CC410160704743F20C01C4F200016F
:102110000968084018BF01207047000043F600001E
:10212000C4F2020001684FF6FF7341F00101016043
:10213000002181600268CEF6F6231A40026043F265
:102140001002C2F20042426043F20002C2F20002F8
:10215000C0F8842002F18062C0F88820026822F46E
:1021600080220260C160C0F88C10704743F6020103
:10217000C4F2020100220A700870704781B043F671
:102180000000C4F202000021009100BF0168009A23
:1021900001320092009AB2F5A04F23D011F4003121
:1021A00020D10168009A01320092009AB2F5A04F46
:1021B00018D011F4003115D10168009A0132009253
:1021C000009AB2F5A04F0DD011F400310AD1016888
:1021D000009A01320092009AB2F5A04F02D011F499
:1021E0000031D3D00068C0F3404001B0704700BF59
:1021F000420943F60001012AC4F2020103D0022A77
:1022000014BF74317031096800F01F0021FA00F02A
:1022100000F00100704700BF43F60001C4F2020164
:102220000A6822F0F80242EAC0000860704700BF66
:102230000021C4F247210860704700BF43F67001D7
:10224000C4F20201002201280A700A7006D0042894
:1022500018BF704705200870704700BF0120087044
:10226000704700BF40F68061C4F2472108607047A4
:1022700080B5DDF808C04FEAC33E4FF6FF73084350
:102280002EEA030340EA8210A3F5803340EA0C6093
:1022900043F604011843C4F20201086080BD00BF88
:1022A0006021C4F247210860704700BF090741EA76
:1022B000801043F68401C4F202010860704700BF39
:1022C0006821C4F247210860704700BF090641EA4F
:1022D000801043F6880140EA0270C4F202010860EF
:1022E000704700BF7021C4F247210860704700BFEB
:1022F0004C21C4F247210860704700BF43F6080232
:10230000C4F202021368084323F0EC631843106020
:10231000704700BF43F60802C4F202021368084384
:1023200023F0784318431060704700BF43F608015C
:10233000C4F202010A6822F00302104308607047E9
:1023400043F60800C4F20200006800F00C00704779
:1023500043F60801C4F202010A6822F0F0021043B9
:102360000860704743F60801C4F202010A6822F4CB
:10237000E05210430860704743F60801C4F20201BE
:102380000A6822F4604242EAC0000860704700BF59
:1023900043F6040CC4F2020CDCF8043042F20042B2
:1023A000C0F2F402C3F3810310B50FF2080101EB90
:1023B00083018F4600F02AB800F004B800F008B896
:1023C00000F024B841F20022C0F27A021EE000BF01
:1023D000DCF800E0DCF80030DCF8001003F03F032C
:1023E000C1F388145FEA4E2141F20021C0F27A0164
:1023F00058BF1146DCF80020B1FBF3F1C2F30142F3
:102400000223614303EB4202B1FBF2F20260DCF80B
:10241000041046F64453C1F30311C0F60003595C9F
:1024200022FA01F14160DCF80420C2F382229A5CB6
:1024300021FA02F28260DCF80420C2F342329A5C94
:10244000D140C16010BD00BF00F44071B1F5407FC4
:1024500043F60801C4F2020109D10A684FF6FF43AE
:10246000C0F6FF7322F4F81203401A430A608A6E22
:102470006FF31F3010438866704700BF40F63C6121
:10248000C4F247210860704740F64061C4F247211A
:102490000860704740F25C11C4F247210860704741
:1024A00043F68C01C4F202010A68013822F01F02CF
:1024B00010430860704700BF43F68C01C4F202016C
:1024C0000A686FF0FF0322F4F85203EB0020104378
:1024D0000860704743F68C01C4F202010A6822F4D6
:1024E000401210430860704743F68C01C4F20201A9
:1024F0000A6822F4400210430860704743F68C01DA
:10250000C4F202010A6822F44032104308607047A6
:1025100041F2E011C4F2472108607047002943F6F8
:102520003001C4F202010A680CBF22EA0000104325
:1025300008607047002943F63401C4F202010A68BA
:102540000CBF22EA0000104308607047002943F6E0
:102550003801C4F202010A680CBF22EA00001043ED
:1025600008607047002943F64001C4F202010A687E
:102570000CBF22EA0000104308607047002943F6B0
:102580004401C4F202010A680CBF22EA00001043B1
:1025900008607047002943F61001C4F202010A687E
:1025A0000CBF22EA0000104308607047002943F680
:1025B0001401C4F202010A680CBF22EA00001043B1
:1025C00008607047002943F61801C4F202010A6846
:1025D0000CBF22EA0000104308607047002943F650
:1025E0002001C4F202010A680CBF22EA0000104375
:1025F00008607047002943F62401C4F202010A680A
:102600000CBF22EA0000104308607047002943F61F
:102610005001C4F202010A680CBF22EA0000104314
:1026200008607047002943F65401C4F202010A68A9
:102630000CBF22EA0000104308607047002943F6EF
:102640005801C4F202010A680CBF22EA00001043DC
:1026500008607047002943F66001C4F202010A686D
:102660000CBF22EA0000104308607047002943F6BF
:102670006401C4F202010A680CBF22EA00001043A0
:102680000860704743F67001C4F202010A6801282D
:1026900022F0080208BF08320A607047002943F69A
:1026A0000D01C4F202010A780CBF22EA00001043B7
:1026B0000870704743F67400C4F20200016841F0EC
:1026C00080710160704700BF43F60C01C4F2020143
:1026D0000968084018BF0120704700BF43F60E018B
:1026E000C4F202010870704780B543F2FF31C4F2B2
:1026F000010188421EDC43F60001C4F20001884259
:1027000038D043F60041C4F2000188424AD043F277
:102710000001C4F2010188425CD14FF480500121D4
:10272000FFF768FF4FF480500021BDE88040FFF7BD
:1027300061BF00BF43F20041C4F20101884225D0CD
:1027400045F20001C4F20101884237D045F2004150
:10275000C4F20101884218BF80BD4FF4001001216E
:10276000FFF748FF4FF400100021BDE88040FFF75D
:1027700041BF00BF4FF480400121FFF72FFF4FF40E
:1027800080400021BDE88040FFF728BF4FF4005093
:102790000121FFF72FFF4FF400500021BDE88040DA
:1027A000FFF728BF4FF400400121FFF717FF4FF458
:1027B00000400021BDE88040FFF710BF4FF48010BB
:1027C0000121FFF717FF4FF480100021BDE8804082
:1027D000FFF710BF80BD00BF2DE9F04102880B88D4
:1027E00002F4415C4A88B1F804E043EA0C03CC8867
:1027F0001A430D8942EA0E024E8922438F892A43E9
:10280000B1F80E8032433A4342EA08020280828BDA
:1028100022F400628283098A0182BDE8F08100BF50
:1028200070B5828B4FF240031A40828302220284E9
:10283000B0F81CC08B68022B04D1CA884FF0000E80
:10284000022342E043F60802C4F20202B1F804E0B7
:102850001468240203D5146824F400041460D46FAF
:10286000D56F52F8046C52F8042C06F03F06520261
:1028700041F20022C0F27A025CBF42F20042C0F292
:10288000F402B2FBF6F2C4F38814C5F30275624396
:10289000B2FBF5F4CA880625BEF1000F08BF052576
:1028A000B2F5007F08BF082524FA05F606EB860678
:1028B0007600B6FBF3F34CF6CD4605339BB25E4390
:1028C0004FF48075330D05EAD62EA3F5807414F10C
:1028D000FE0F34BF022342EA0E021A4302840A8822
:1028E0004B888E8842EA0C0289891A43324311438D
:1028F00041F40061818370BD0021C160816041604D
:10290000016007210182704700210222C0E9001105
:1029100082608181704700BF0288002918BF0121B1
:1029200022F0400242EA811101807047828B002927
:1029300018BF012122F4806242EA8121818370471D
:10294000028822F4006202800288114301807047ED
:10295000A1F580410288B1FA81F1490922F480424F
:1029600042EA8131018070474FF6FF62891A02887E
:1029700018BF012122F4807242EA012101807047D0
:102980008288002918BF012122F0040242EA810155
:10299000818070478288002918BF012122F010022F
:1029A00042EA01118180704710B5828B4FF24003DB
:1029B0001A40828302220284B0F81CC00B881BBA22
:1029C0001B0C032B06D846F65452C0F6000232F810
:1029D00013E001E04FF0000E4A888B888C894CEAA6
:1029E0000E0111431943214341F40061818310BD5D
:1029F00080897047818170470288002918BF0121B2
:102A000022F4005242EA413101807047018841F4CA
:102A100080510180704700BF1822012908BF14228D
:102A2000805A7047008A7047002A82880CBF22EAC9
:102A300001011143818070470909012303FA01F163
:102A4000002A82880CBF22EA01011143818070476D
:102A50000089084018BF0120704700BFC9430181A9
:102A6000704700BF0A094FF0010C838800890CFAF7
:102A700002F201F00F011A4020FA01F018BF012202
:102A80001040704701F00F01012202FA01F1C94321
:102A90000181704780B541F6FF31C4F200018842E0
:102AA00024DC40F6FF31C4F20001884244DD41F2EB
:102AB000FF31C4F20001884278DC40F60041C4F2E4
:102AC0000001884200F0A28041F20001C4F200013E
:102AD000884240F0EF8010200121FFF77FFD102099
:102AE0000021BDE88040FFF779BD00BF40F2FF3113
:102AF000C4F2010188423BDD44F2FF31C4F201011E
:102B0000884269DC40F20041C4F20101884200F0D1
:102B1000878044F20001C4F20101884240F0CA807B
:102B20004FF480300121FFF765FD4FF48030002124
:102B3000BDE88040FFF75EBDB0F1804F00F09080AF
:102B400040F20041C4F20001884200F09D8040F64E
:102B50000001C4F20001884240F0AC800420012151
:102B6000FFF73CFD04200021BDE88040FFF736BDA3
:102B700041F60041C4F2000188427BD042F20001DC
:102B8000C4F20001884200F089800021C4F20101F2
:102B9000884240F08F8001200121FFF72BFD0120AA
:102BA0000021BDE88040FFF725BD00BF41F2004194
:102BB000C4F2000188423DD041F60001C4F2000198
:102BC000884277D140200121FFF708FD40200021F5
:102BD000BDE88040FFF702BD44F20041C4F20101AC
:102BE000884231D044F60001C4F20101884218BF86
:102BF00080BD4FF480200121FFF7FCFC4FF48020C2
:102C00000021BDE88040FFF7F5BC00BF082001218E
:102C1000FFF7E4FC08200021BDE88040FFF7DEBCA0
:102C200002200121FFF7E6FC02200021BDE88040E0
:102C3000FFF7E0BC20200121FFF7D0FC202000217D
:102C4000BDE88040FFF7CABC4FF400300121FFF718
:102C5000D1FC4FF400300021BDE88040FFF7CABC32
:102C600001200121FFF7BAFC01200021BDE88040CE
:102C7000FFF7B4BC80200121FFF7B0FC80200021C9
:102C8000BDE88040FFF7AABC02200121FFF7A6FCA7
:102C900002200021BDE88040FFF7A0BC4FF4807007
:102CA0000121FFF79BFC4FF480700021BDE88040BC
:102CB000FFF794BC80BD00BF10B540F6FF32B0F8FE
:102CC00000E0C4F2000240F2004C9042C4F2010C59
:102CD00010DCB0F1804F1AD040F20042C4F2000282
:102CE000904214D040F60002C4F2000290420ED08E
:102CF00012E000BF40F60042C4F20002904206D04B
:102D0000604504D00022C4F20102904204D14A88F6
:102D10002EF0700342EA030E41F2004340F4806259
:102D2000C4F200039A4204D00C892EF4407344EAA2
:102D3000030EA0F800E04B686245C3620B88038570
:102D400004BF897A01860121818210BD4FF0FF31D5
:102D50000022C0E9002102818272704701858282CF
:102D6000704700BF028822F0700211430180704753
:102D700041627047C1627047406A7047008D70477A
:102D80000288002918BF012122F0020242EA410113
:102D9000018070470288002918BF012122F0040237
:102DA00042EA8101018070470288002918BF012191
:102DB00022F0800242EAC11101807047028822F0AD
:102DC000080202800288114301807047028822F4C1
:102DD00040720280028811430180704702880029F6
:102DE00018BF012122F0010211440180704700BF89
:102DF000B0B5028C40F2004522F001020284038C3F
:102E000040F48064C4F201058288B0F818C0AC4276
:102E10008C8923F002034D88B1F800E043EA0403F3
:102E200043EA05030DD1CC8923F00C0324F00404FC
:102E30008D8823430C8A2B4322F440724D8A22430F
:102E40002A432CF0730545EA0E05828005838968C4
:102E500041630384B0BD00BFB0B5028C40F20045B1
:102E600022F01002028440F48064C4F20105038C55
:102E70008288B0F818E0AC428C894D88B1F800C067
:102E800023F0200344EA050443EA041311D1CC895A
:102E90006FF0400523F0C00305EA04148D88234336
:102EA00043EA05130C8A4D8A22F440622C4342EA1D
:102EB00084022EF4E64545EA0C2582800583896864
:102EC00081630384B0BD00BFB0B5028C40F2004501
:102ED00022F48072028440F48064C4F20105038C01
:102EE0008288B0F81CE0AC428C894D88B1F800C0F3
:102EF00023F4007344EA050443EA042311D1CC8986
:102F000040F2FF45240223F44063AC438D88234301
:102F100043EA05230C8A4D8A22F440522C4342EAAC
:102F200004122EF0730545EA0C05828085838968BA
:102F3000C1630384B0BD00BFF0B5028C40F200470E
:102F400022F480520284038C8288B0F81CE0B1F82D
:102F500000C08C894D8840F48066C4F20107BE42EF
:102F600004D10E8A22F4804242EA86122EF4E64709
:102F700047EA0C278280878323F400532C43896817
:102F800043EA043201640284F0BD00BF0021016005
:102F90008180C0E902110161704700BF10B54FF098
:102FA000010C048C0CFA01F324EA03036FF008040B
:102FB00000F1180E214203840ED0081F80B2410890
:102FC0005EF8013048F6FF740EEB50002340120209
:102FD0004EF801300AE000BF4B080EEB510053F8E9
:102FE0000E104FF68F74214043F80E10016892B214
:102FF0001143016010BD00BF41637047816370479A
:10300000C163704701647047028B22F07002114364
:1030100001837047028B22F4E04242EA01210183DE
:10302000704700BF828B22F070021143818370478A
:10303000828B22F4E04242EA01218183704700BF83
:10304000028B22F00802114301837047028B22F4A5
:10305000006242EA01210183704700BF828B22F0A7
:103060000802114381837047828B22F4006242EA96
:1030700001218183704700BF028B22F004021143BB
:1030800001837047028B22F4806242EA01210183AE
:10309000704700BF828B22F0040211438183704786
:1030A000828B22F4806242EA01218183704700BF53
:1030B000028B22F08002114301837047028B6FF371
:1030C000DF3242EA01210183704700BF828B22F088
:1030D0008002114381837047828B6FF3DF3242EAB3
:1030E00001218183704700BF028C22F0020211434C
:1030F00001847047028C22F008021143018470475A
:10310000028C22F0200242EA01110184704700BFC4
:10311000028C22F0800242EA01110184704700BF54
:10312000028C22F4007242EA01210184704700BF40
:10313000028C22F4006242EA01210184704700BF40
:10314000028C22F4005242EA01310184704700BF30
:1031500080B54FF0010CB0F820E00CFA01F32EEA34
:1031600003030384038C02FA01F11943018480BD37
:1031700080B54FF0040CB0F820E00CFA01F32EEA11
:1031800003030384038C02FA01F11943018480BD17
:1031900070B50C88B1F802C0B1F804E00B89028C5C
:1031A000082C2FD0042C17D0002C45D122F001027E
:1031B0000284024632F8184F058C24F0F30425F0FF
:1031C0000A0544EA031345EA0C0543EA0E0345F0F9
:1031D0000105138005842AE022F0100202840246D1
:1031E00032F8184F058C40F6FF46344025F0A00613
:1031F00044EA033346EA0C1643EA0E2346F010066F
:103200002FE000BF22F480720284024632F81C4F85
:10321000058C24F0F30425F4306644EA031346EAEF
:103220000C2643EA0E0346F4807613800684C88891
:10323000118821F00C011BE022F480520284024626
:1032400032F81C4F058C40F6FF46344044F6FF76BA
:103250001B032E4043EA0E2346EA0C36234346F472
:10326000805613800684C8881188000221F44061CA
:10327000118011880843108070BD00BF028B22F0BE
:103280000C020283028B114301837047028B22F4EC
:1032900040620283028B42EA01210183704700BF32
:1032A000828B22F00C028283828B114381837047D0
:1032B000828B22F440628283828B42EA01218183E5
:1032C000704700BF00210122016042600181704708
:1032D000F0B54B888C880127B3FA83F2012C08BF24
:1032E00002270E885209B1F808E0058C4FEA420C1B
:1032F000C6B325F010020284028B40F6FF46058C0F
:10330000324042EA0E3242EA042225F0A00444EAA6
:10331000031343F0100302830384C988028B22F451
:1033200040620283028B42EA01220283028C22F075
:1033300001020284028B038C22F0F30223F00A03C1
:1033400042EA0E1243EA0C033A4443F001030283BB
:103350000384028B22F00C020283028B114301834F
:10336000F0BD00BF25F001020284028B058C22F023
:10337000F30242EA0E12224325F00A04234343F0EB
:10338000010302830384C988028B40F6FF4422F0C4
:103390000C020283028B0A430283028C090222F090
:1033A00010020284028B038C224023F0A00342EA25
:1033B0000E3243EA0C1342EA072243F01003028361
:1033C0000384028B22F440620283028B1143018347
:1033D000F0BD00BF406B7047806B7047C06B70479B
:1033E000006C7047B1F800C04B888A8843EA0C0330
:1033F00043EA020CCB880A8943EA0C031A434B893F
:1034000089891A431143A0F8441070470021818133
:103410008160416001607047B0F84420002918BF06
:1034200001216FF3DF3242EAC131A0F84410704746
:103430008288002918BF012122F0040242EA81019A
:10344000818070478288002918BF012122F0010283
:1034500011448180704700BF002A82890CBF22EA94
:10346000010111438181704781827047008A0840C1
:1034700018BF0120704700BFC9430182704700BFD9
:10348000028A80890A4000EA010018BF0122002850
:1034900018BF012010407047C9430182704700BF28
:1034A0001143A0F848107047002A82890CBF22EA15
:1034B00001011143818170478288002918BF0121D1
:1034C00022F0080242EAC10181807047018921F09F
:1034D00007010181704700BF028922F07002114389
:1034E0000181018941F0070101817047028922F0C1
:1034F000700211430181704710B5B0F820C06029F7
:1035000016D12CF0100CA0F820C0B0F818C0B0F8FC
:1035100020E040F6FF4404EA0C0444EA03332EF0B2
:10352000A00444EA021203F5807342F0100210E096
:103530002CF001040484048BB0F820C024F0F204C1
:1035400044EA03132CF00A04224343F0010342F03F
:10355000010203830284028922F070021143018177
:10356000018941F00701018110BD00BFB0F808C01A
:1035700011435FFA8CFC41EA032141EA0C0101810D
:10358000018941F077010181704700BFB0F808C0A0
:1035900011435FFA8CFC41EA032141EA0C010181ED
:1035A000704700BFB0F808C011435FFA8CFC41EAD5
:1035B000032141EA0C010181018941F4804101812B
:1035C000704700BF828822F0700282808288114397
:1035D00081807047028922F007020281028911432B
:1035E00001817047028922F0800202810289114321
:1035F00001817047B0B5B0F808C0B0F818E0058C8C
:103600002CF0070421434FF6FC4404EA0E0425F095
:10361000220542EA031204F201142A4301810483C1
:103620000284B0BD8288002918BF012122F08002E7
:1036300042EAC11181807047A0F850107047000025
:10364000F0B587B04FF400400121FEF78BFF40F248
:103650000044C4F20204204603210622FEF71EFDA8
:10366000204604210622FEF719FD204605210622E8
:10367000FEF714FD2820009040F202306D46ADF8B0
:1036800004000026204629468DF80660FEF74AFC15
:10369000102000900227204629468DF804708DF8EE
:1036A0000760FEF73FFC40F20130ADF8040004F57E
:1036B0004060294600978DF80660FEF733FC41F222
:1036C0001800C4F202000188A4F5E43441F00201BC
:1036D000018020460021FFF71FF94FF08270CDF8DE
:1036E0000A004FF40060CDF80E004FF00070CDF8E6
:1036F00012000820CDF816000720ADF81A000DF1D1
:103700000A012046FFF768F820460121FFF704F977
:1037100007B0F0BD2DE9F0439BB04FF480000121CC
:103720004FF00108FEF7FAFE57200121FEF7F6FEE2
:103730004FF4807001214FF48075FEF71FFF42F2B5
:103740000004C4F2010404F14C00039040F2DC20B8
:103750000026C2F20000CDE90406A020CDE906064D
:103760004FF4006009904FF40050CDE90A054FF482
:10377000003046F210450C900420C4F202054FF4CC
:103780008069CDE90D0802A928460296CDF820905F
:10379000CDE90F66FDF7D2F928460121FDF708FAB9
:1037A0006D46032704F560402946CDF800908DF85A
:1037B00004708DF80760FEF7B5FB04F568402946F4
:1037C000CDF800908DF804708DF80760FEF7AAFB25
:1037D0004FF44140009004F5704029468DF8047084
:1037E0008DF80760FEF79EFB4FF4803012904FF487
:1037F0008040CDE9130611A81196FCF7E5FE40F2D2
:103800000110ADF8580005208DF8680015A9204674
:103810001596CDE917661996FCF7A0FE2046002103
:1038200001220223FCF728FF204601210222022365
:10383000FCF722FF2046022103220223FCF71CFF93
:103840002046032104220223FCF716FF2046042110
:1038500005220223FCF710FF20460121FCF782FF1E
:1038600020460121FCF774FF20460121FCF7CCFE25
:103870002046FCF731FF1BB0BDE8F0832DE9F04F87
:1038800083B001200121FEF749FE02200121FEF74D
:1038900045FE042001214FF00408FEF73FFE0820FA
:1038A0000121FEF73BFE102001214FF0100BFEF727
:1038B00035FE20200121FEF731FE40200121402766
:1038C000FEF72CFE40F6000A4FF48040C4F2020AD4
:1038D00001AC019040F20125002650462146ADF88A
:1038E00008508DF80A60FEF71DFB41F20009C4F292
:1038F0000209484621460197ADF808508DF80A6044
:10390000FEF710FB48462146CDF804B0ADF808504C
:103910008DF80A60FEF706FB48462146CDF8048084
:10392000ADF808508DF80A60FEF7FCFA4FF400403D
:10393000019050462146ADF808508DF80A60FEF718
:10394000F1FA2020019048462146ADF808508DF844
:103950000A60FEF7E7FA0820019048462146ADF8D4
:1039600008508DF80A60FEF7DDFAAAF5806021465E
:10397000CDF80480ADF808508DF80A60FEF7D2FA51
:103980004FF4806B50462146CDF804B0ADF8085096
:103990008DF80A60FEF7C6FA4FF480500190504649
:1039A0002146ADF808508DF80A60FEF7BBFAA9F57C
:1039B000806738462146CDF80480ADF808508DF870
:1039C0000A60FEF7AFFA0220019038462146ADF8B2
:1039D00008508DF80A60FEF7A5FA4FF48070AAF53A
:1039E0000067019038462146ADF808508DF80A600E
:1039F000FEF798FA4FF61A00CFF6FF703AF800106B
:103A00004FF4007841F480712AF8001050462146A6
:103A1000CDF80480ADF808508DF80A60FEF782FA00
:103A20004FF61800CFF6FF7039F8001041F400711E
:103A300029F8001038462146CDF804B0ADF80880CA
:103A40008DF80B60FEF76EFA03B0BDE8F08F000052
:103A500070B58AB00D46044601200121FEF782FDB3
:103A600001200121FEF75AFD40F20046C4F2020691
:103A700030460A210122FEF711FB30460B210122BC
:103A8000FEF70CFB4FF44060009040F20220C0F2C1
:103A90000010019069463046FEF744FA2020ADF848
:103AA0001E000894002407A94FF08040ADF81C5078
:103AB000ADF824408DF82640FFF7FEF86020C0F2F4
:103AC000010002904FF080400021ADF81440FFF754
:103AD00097FA4FF080400821FFF7C0FA02AC4FF090
:103AE00080402146FFF7F0F94FF080400021FFF7BA
:103AF00089FA4FF080400821FFF7B6FA4FF0804076
:103B00002146FFF719FA4FF080400121FFF74CF9E9
:103B10004FF080400121FFF761F90AB070BD00004D
:103B200043F60841C4F2000141F218008A88C4F249
:103B3000020002220280BFF34F8F428041F288329E
:103B4000BFF34F8F0B889B070DD413040BD00B884A
:103B50009B075CBF0B885FEA837303D40B88043A2E
:103B60009B07EFD5012212041CD043F641028A8044
:103B700041F288320B88DB070DD113040BD00B8880
:103B8000DB0704BF0B885FEAC37303D10B88043AD9
:103B9000DB07EFD00122120404D08A8802220280BF
:103BA000BFF34F8F8A8802220280BFF34F8F42807B
:103BB00041F28832BFF34F8F0B889B070DD413045B
:103BC0000BD00B889B075CBF0B885FEA837303D421
:103BD0000B88043A9B07EFD5012212041CD043F650
:103BE00041028A8041F288320B88DB070DD1130431
:103BF0000BD00B88DB0704BF0B885FEAC37303D1CC
:103C00000B88043ADB07EFD00122120404D08A8823
:103C100002220280BFF34F8F8A8802220280BFF304
:103C20004F8F428041F28832BFF34F8F0B889B0742
:103C30000DD413040BD00B889B075CBF0B885FEA85
:103C4000837303D40B88043A9B07EFD50122120437
:103C50001DD043F641028A8041F288320B88DB078F
:103C60000DD113040BD00B88DB0704BF0B885FEA70
:103C7000C37303D10B88043ADB07EFD0012212048F
:103C800008BF7047898802210180BFF34F8F7047BA
:103C900080B543F6084EC4F2000E41F2180CBEF88F
:103CA0000420C4F2020C0222ACF80020BFF34F8FB4
:103CB000ACF8022041F28832BFF34F8FBEF80030DB
:103CC0009B0710D413040ED0BEF800309B075CBFD6
:103CD000BEF800305FEA837304D4BEF80030043AC3
:103CE0009B07EBD50122120426D0AEF8040041F266
:103CF0008830BEF80020D20710D102040ED0BEF8E2
:103D00000020D20704BFBEF800205FEAC27204D1CF
:103D1000BEF800200438D207EBD0012000040BD0FD
:103D2000BEF80400002918BF08800220ACF800008B
:103D30000020BFF34F8F80BD012080BD41F21800ED
:103D4000C4F2020002210180BFF34F8F704700BF11
:103D500041F21A00C4F2020002210180BFF34F8F2A
:103D6000704700BF43F6084C41F28833C4F2000CA0
:103D7000BCF80020920710D41A040ED0BCF8002022
:103D800092075CBFBCF800205FEA827204D4BCF8E2
:103D90000020043B9207EBD501231A0422D0ACF893
:103DA000040041F28830BCF80020D20710D1020490
:103DB0000ED0BCF80020D20704BFBCF800205FEA98
:103DC000C27204D1BCF800200438D207EBD0012025
:103DD000000407D0BCF80400002918BF08800020A8
:103DE000704700BF0120704710B543F6084C41F200
:103DF000883EC4F2000CBCF800309B0713D45FEA85
:103E00000E4310D0BCF800309B075CBFBCF80030FC
:103E10005FEA837305D4BCF80030AEF1040E9B0753
:103E2000E9D54FF0010E5FEA0E434FD0ACF8040025
:103E3000002A4FF0000008BF10BD00BF41F2883ECD
:103E4000BCF80030DB0713D15FEA0E4310D0BCF89A
:103E50000030DB0704BFBCF800305FEAC37305D154
:103E6000BCF80030AEF1040EDB07E9D04FF0010ED4
:103E70005FEA0E432AD0BCF8044093B2012B4FEA0C
:103E8000142E25D0023A130481F800E04C7021D0A2
:103E9000023141F28833BCF80040A40711D41C045D
:103EA0000FD0BCF80040A4075CBFBCF800405FEA3C
:103EB000847405D4BCF80040043BA407EBD500BFD4
:103EC00001231B0402D0ACF80400B7E7012010BDA9
:103ED00081F800E0002010BD11B3F0B543F60840B2
:103EE000C4F20000A1F1010E042901F0030C19D263
:103EF0000023BCF1000F11D073450CD10288D2070A
:103F000009D10288D20704BF02885FEAC27202D1D7
:103F10000288D207F2D0BCF1010F4DD1BDE8F040CC
:103F20000020704701F0FC028C1ECD1E0E1F0023E6
:103F300003E000BF04339342DBD073450CD1078804
:103F4000FF0709D10788FF0704BF07885FEAC77723
:103F500002D10788FF07F2D0A3420DD10788FF07DF
:103F60000AD10788FF0704BF07885FEAC77703D134
:103F70000788FF07F2D000BFAB420DD10788FF07CB
:103F80000AD10788FF0704BF07885FEAC77703D114
:103F90000788FF07F2D000BFB342CBD10788FF07E5
:103FA000C8D10788FF0704BF07885FEAC777C1D178
:103FB0000788FF07F2D0BDE78A1E93420CD1028822
:103FC000D20709D10288D20704BF02885FEAC27211
:103FD00002D10288D207F2D0BCF1020F9ED0033981
:103FE0008B427FF49BAF0188C9077FF497AF0188AC
:103FF000C90704BF01885FEAC1717FF48FAF0188F0
:10400000C907F0D08AE7000080B582B00021ADF882
:1040100006104EF2041141EA800080B20DF1060153
:10402000FFF736FEBDF8060002B080BD2DE9F04373
:104030004FF6C06040F2DC2C4FF0000ECFF6FF7060
:10404000C2F2000C00210024002300250CEB00022A
:10405000B2F840612830B644B2F84261B2F8447117
:1040600031443C44B2F84661B2F8487133443D44AF
:10407000B2F84A61B2F84C71764401EB070EB2F81F
:104080004E71B2F850113C441944B2F85231B2F8B2
:1040900054712B4406EB0705B2F85661B2F858711B
:1040A000764404EB0708B2F85A71B2F85C410F4449
:1040B00003EB0409B2F85E11B2F8603105EB010EB2
:1040C00006EB0301B2F86231B2F86451B2F866212E
:1040D00008EB030407EB050309EB0205B6D140F238
:1040E000E8165809620949096B094FEA5E17C2F2DE
:1040F0000006A6F86470A6F86610A6F86820A6F870
:104100006A00A6F86C30BDE8F08300BFB7EE001A75
:1041100090ED002A31EE601A20EE200A21EE021AFC
:1041200031EE000A80ED000A704700BF80B590EDC7
:10413000000A40F25800C2F200000068BCEEC00A5B
:1041400041888388C28810EE100A80B200F01AFB02
:1041500040F2E811C2F20001086380BD10B590ED95
:10416000000A40F25800C2F200000268BDEEC01A18
:10417000918911EE100A01EE101A41F24D5CB8EE71
:10418000411AC3F68C4C30EE410A01EE10CAD389B5
:10419000128A20EE010A40F2E8144FF0000CB5EE4E
:1041A000400AC2F2000401EE10CAF1EE10FAD8BFC4
:1041B000B0EE410A84ED0D0A00F0B0FAA06310BD24
:1041C00040F25800C2F2000000690078012840F275
:1041D000E810C2F2000013D140F2A421C2F20001A3
:1041E0000988002918BF70474268016B40F26813C4
:1041F0008A1A0264C2F20003DA824160704700BF8B
:1042000040F26813016B0022C2F200030264DA82FA
:104210004160704740F25800C2F200000069007827
:10422000012819D140F2E81040F2DC02C2F200008D
:10423000C2F20002018812884B1C9142038038BFF1
:1042400070478168026B40F2A813511AC2F2000352
:1042500019838260704700BF40F2E812C2F2000288
:1042600040F2A810136BC2F200000021018393609A
:104270001180704740F25800C2F2000000690078D7
:10428000012840F2E810C2F2000013D140F2A4214C
:10429000C2F200014988002918BF7047C268816BCB
:1042A00040F2A8138A1AC2F20003C263DA82C16024
:1042B000704700BF40F2A811C2F200010022CA827A
:1042C000816BC263C1607047F0B581B02DED028B88
:1042D00040F25805C2F2000540F2E814A868C2F2A4
:1042E000000494ED142A90ED024A94ED040AB7EE0E
:1042F000008A94ED153AB8EE422A38EE445A94ED0D
:10430000051A24EE022A25EE000A2A6830EE020A77
:10431000B8EE432A24EE022A25EE011A31EE021AE3
:10432000918984ED051ABDEEC01A40F2B02711EE56
:10433000100A01EE101A41F24D56C2F20007B8EE13
:10434000411AC3F68C4684ED040A87ED030A30EE69
:10435000410A01EE106AD389128A20EE010A002672
:10436000B5EE400A01EE106AF1EE10FAD8BFB0EED9
:10437000410A84ED0D0A00F0D1F9A063A86894ED1C
:10438000122A90ED014A94ED060A94ED133AB8EE24
:10439000422A38EE445A94ED071A24EE022A25EEFA
:1043A000000A30EE020AB8EE432A24EE022A25EE75
:1043B000011A286831EE021A84ED060ABCEEC10A21
:1043C00087ED021A10EE107A41888388C288B8B24D
:1043D00084ED071A00F0D6F92063BDEC028B01B022
:1043E000F0BD00BF00EE100A40F2D800C2F200009B
:1043F00090ED001A40F2D020C2F20000B7EE002A81
:1044000090ED003AB8EEC00A32EE412A21EE000AE1
:1044100022EE031A31EE000A80ED000A40F240005D
:10442000BCEEC00AC2F2000080ED030A704700BF74
:1044300040F2E00140F2E810C2F20001C2F20000D6
:1044400091ED002A90ED080A90ED091AB7EE003AB6
:1044500033EE423A21EE021A23EE000A30EE010A50
:1044600080ED080A704700BF2DE9F04F85B040F29B
:10447000E811C2F200014EF2041201F15000039063
:1044800002F5007080B2029001F14800019002F53F
:10449000806080B2009002F5C06087B202F50060D3
:1044A00000260DF1120401F1440901F1580885B20A
:1044B00001F15C0A4FF0000B03E000BF08600BF154
:1044C000010B5FFA8BF006286AD80FF2080101EBA6
:1044D00080018F4600F016B800F034B800F01EB826
:1044E00000F026B800F004B800F036B800F046B886
:1044F00028462146ADF81260FFF7CAFBBDF812004E
:104500005146DBE74EF204102146ADF81260FFF78A
:10451000BFFBBDF812000399D0E700BF0098214609
:10452000ADF81260FFF7B4FBBDF812004946C5E7CD
:1045300038462146ADF81260FFF7AAFBBDF812001D
:104540004146BBE702982146ADF81260FFF7A0FB99
:10455000BDF812000199B1E74EF2041000F5206099
:1045600080B22146ADF81260FFF792FB40F2E811ED
:10457000BDF81200C2F2000160319FE74EF2041054
:1045800000F5406080B22146ADF81260FFF780FB75
:1045900040F2E811BDF81200C2F2000154318DE77B
:1045A0000020ADF812004EF2041000F5606080B2F9
:1045B0000DF11201FFF76CFBBDF8120040F2E8119B
:1045C000C2F20001C86405B0BDE8F08FB0B541F299
:1045D0000004C4F20204A4F5006528464FF480618B
:1045E000FDF74EFD28464FF48051FDF749FD284662
:1045F0004FF48041FDF744FD20464021FDF740FD8A
:1046000020461021FDF73CFD20460421FDF738FD32
:1046100028464FF40041FDF731FD20462021FDF7EB
:104620002DFD20460821FDF729FDA4F540604FF43B
:104630008071BDE8B040FDF721BD00BF10B540F668
:104640000044C4F2020420460421FDF717FD204671
:104650000221FDF713FD40F2702041F29901C2F2F0
:104660000000C3F69351C0E9081110BD40F22C219F
:1046700040F27020C2F20001C2F2000091ED050A82
:1046800091ED061A90ED082A90ED093AB8EE400A2D
:10469000B8EE411A22EE000A40F2102023EE011A71
:1046A000BDEEC00AC2F20000BDEEC11A80ED000AE4
:1046B00080ED011A704700BF40F22401C2F20001F0
:1046C00040F27020896BC2F20000828E8B889A4281
:1046D0004FF0000338BF531C8386C28ECB889A42AA
:1046E0004FF0000338BF531CC386028F0B899A42D8
:1046F0004FF0000338BF531C0387428F4B899A4207
:104700004FF0000338BF531C4387C28F89890023B1
:104710008A4238BF531CC387704700BF8A429EBF7E
:104720004FF0000C1FFA8CF0704780B541F2883CC6
:10473000521AACEB030E92B200EE10EA01EE102A10
:10474000B8EEC00AB8EE411A80EE010A401A02EE35
:10475000100A01EE103AB8EEC22AB8EE411A22EE63
:10476000000A30EE010ABDEEC00A10EE100A20EA7F
:10477000E0706045B8BF8446BDE880401FFA8CF009
:10478000704700BF8A429EBF4FF0000C1FFA8CF0AA
:10479000704780B541F2883C521AACEB030E92B2DE
:1047A00000EE10EA01EE102AB8EEC00AB8EE411A87
:1047B00080EE010A401A02EE100A01EE103AB8EE3D
:1047C000C22AB8EE411A22EE000A30EE010ABDEE0E
:1047D000C00A10EE100A20EAE0706045B8BF8446B7
:1047E000BDE880401FFA8CF0704700BF80B540F2F2
:1047F000240040F21021C2F20000C2F20001008D3C
:10480000898840F22812C2F2000201F0DBFF40F278
:1048100070220146C2F200024FF080409162BDE872
:104820008040FEF7EFBB00BF01464FF08040FEF72F
:10483000E9BB00BF01464FF08040FEF7E1BB00BF7F
:104840002DE9F04F40F21C4E322740F20008C2F230
:10485000000E078041F6641A4FF08A474FF08C4BE8
:10486000C4F220184FF480664CF6C4644FF0000C7C
:104870004AF21045DEF80090C0F802A0C0E9027BC1
:10488000C0F810808682C0E9094CC0E90B5C322078
:10489000C1F802A04FF0000A0880C1E9027BC1F80C
:1048A00010808E824C62CD6244F60048C1F828A088
:1048B000C1F830A04BF2004144F2402CCFF63B3817
:1048C000C0F2C441B9F15A3FC0F20F0C68D1DEF812
:1048D0005870DEF860601780DEF868705680DEF889
:1048E000706097809EED170A9EED191A9EED1B2AA7
:1048F000DEF87470C2E90918DEF87C109782D16284
:10490000DEF87810B8EEC00A1163DEE93617B8EEAB
:10491000C11A1187DEF8E8105787DEF8F07091872A
:10492000DEF88010B8EEC22A82ED020A9EED210A5E
:10493000D68082ED031A82ED042AD787DEF888201C
:104940001980DEF890109EED231AB8EEC00A5A8046
:10495000DEF89820998083ED020AB8EEC10A9EED38
:10496000251ADEF89C10C3E909CADEF8A400DA8033
:10497000D862DEF8A00083ED030A1863DEE9382769
:10498000B8EEC10A9982DEF8EC10DEF8F40083ED8F
:10499000040A1A875F879987D887BDE8F08F00BF20
:1049A00040F2DC56002500209627C0F2E836C4F21B
:1049B000C835C4F2FA60C2E90076C2E902504FF489
:1049C000AF704FF23C670024908240F6C410CFF6DF
:1049D000FF77C2E909181421C4F2E134C2E90B07D8
:1049E000C820C0F201011461C2E90E014FF4C86190
:1049F00040F203220027C0F20322C4F2963783E874
:104A00008600642100260025998241F28831C4F293
:104A10004836C4F2C825C3E90B1A986301200A215D
:104A2000C3E90365C3E909CA9987D887BDE8F08F50
:104A300040F22403C2F20003598940F2DA2C42F218
:104A40001072C2F2000CB2FBF1F2BCF8001093ED50
:104A5000050A01318BB2B3EB520FACF800100DD93F
:104A6000934204BF0021ACF8001090ED001AB7EE9D
:104A7000002AB8EE411A32EE400A07E090ED001A23
:104A8000B7EE002AB8EE411A30EE020A20EE010A13
:104A9000BDEEC00A10EE101A0160704740F224010A
:104AA000C2F200010B6C40F2702C198842F21072B5
:104AB000C2F2000CB2FBF1F2BCF8041093ED010A53
:104AC00001318BB2B3EB520FACF804100ED9934204
:104AD00004BF0021ACF8041090ED001AB7EE002AD4
:104AE000B8EE411A32EE400A08E000BF90ED001A1D
:104AF000B7EE002AB8EE411A30EE020A20EE010AA3
:104B0000BDEEC00A10EE101A016070472DE9F04F9B
:104B100085B040F22407C2F20007796CFD8909785C
:104B2000B7F80CB0B7F81080B7F812A040F27024B4
:104B300040F2102900200129C2F20004C2F200094B
:104B4000039079D199ED050A97ED121AB8EEC00AD3
:104B500021EE000ABDEEC00A10EE100A264626F825
:104B6000060F4FF63001CFF6FF7130464FF4FA6270
:104B700001F0BAF9796CB88D32884978801AADF8AD
:104B8000120099B101B200EE101A99ED031AB8EEB5
:104B9000C00A97ED142A21EE000A20EE020ABDEEAB
:104BA000C00A10EE101A0844ADF81200786BB7F87E
:104BB0004C100089084402B20DF11200002101F0EE
:104BC00093F9786CBDF81260C078D8B399ED030AF8
:104BD000B5EE400AF1EE10FA64D097ED0C1A97ED9D
:104BE000152A786B21EE021A81EE000A818AC08AAA
:104BF00001EE100AF8EE410A03A88DED030A00EE5B
:104C0000101AB8EE400A01F03DF9786B9DED031AD9
:104C10000189C08A00EE101AB8EE400A21EE000A9F
:104C200001EE100AB8EE411A80EE010ABDEEC00A8C
:104C300010EE100A38E000BF2063786C017801297B
:104C40001AD14AE0F86B00EE106AD0ED000AB8EE17
:104C5000400A04F13000FFF759FA94ED0C0AB7F856
:104C60004C00BDEEC00A10EE106A301AA4F84600DF
:104C7000786C0178012930D0207800210228216148
:104C800006D0012808D104F10E000FFA8BF105E0DF
:104C900004F10E0029B201E004F10E00642201F0DB
:104CA0006DF967E0786B00892081B04238BF064615
:104CB000F86B00EE106AD0ED030AB8EE400A04F17A
:104CC0003000FFF723FA94ED0C0ABDEEC00A10EE97
:104CD000106A786C01780129CED18078C0B1F88D46
:104CE000A18900EE100A94ED0B1AB8EE400A02EE0C
:104CF000101AB8EE422A20EE010A30EE020A628F44
:104D0000BDEEC00A10EE101A61812AB1608A0DE072
:104D1000208F6682F8B911E00844B9F8101040F20B
:104D2000A81280B2C2F2000201F0B6FD00B2B6B223
:104D3000218FB042B8BF0646668261B9B9F8081043
:104D400040F26812B0B2C2F2000201F0D1FAB7F834
:104D50004C100844208297ED060AB4F91000BDEE0D
:104D6000C00A10EE101A42465346CDE9005B01F02E
:104D70001FFCE081B4F90E00FFF734FB396C42F2FE
:104D80001072088891ED010AB2FBF0F0A28801329E
:104D900091B2B1EB500FA2800CD9814204BF002028
:104DA000A08094ED0A1AB7EE002AB8EE411A32EE4E
:104DB000400A07E094ED0A1AB7EE002AB8EE411A4D
:104DC00030EE020A20EE010ABDEEC00A10EE102AF3
:104DD000388DB9F80410A26240F22812C2F2000223
:104DE00001F0F0FC0146A0624FF08040FEF70AF9A6
:104DF00005B0BDE8F08F00BF80B5C8B140F2702C9F
:104E0000C2F2000CBCF816E086451DD19CF80100EA
:104E1000012803D1BCF81400C8281CD900208CF844
:104E20000100ACF814000888ACF81800012080BD1F
:104E3000029840F27022C2F2000200235370938263
:104E400008800120D38280BD4FF0010E8CF801E074
:104E5000ACF8160000200130ACF814000888BCF84B
:104E600018E0704502D99842DED304E09042DBD8C6
:104E700070451346D8D20B801846ACF818000120B4
:104E800080BD00BFC0B180B540F2702CC2F2000CF2
:104E9000BCF81CE086453DD19CF80200012867D192
:104EA000BCF81A00C8283CD900208CF80200BDE8E4
:104EB00080400120704700BF40F27020C2F2000025
:104EC000002144F2000281704183C4F21C5201EEC1
:104ED000102A5A8893ED030A02EE102A44F20002C7
:104EE000CCF21C5203EE102A20EE011AB8EE422A30
:104EF00020EE030A81EE021A80EE020A818301206D
:104F0000BDEEC11ABDEEC00A83ED091A83ED0A0A8F
:104F1000704700BF4FF0010E8CF802E0ACF81C00A7
:104F200000200130ACF81A00588800EE102A93EDEA
:104F3000031A03EE101AB8EE400A02EE100AB8EE99
:104F4000433A21EE000AB8EE422A21EE031A80EE1F
:104F5000020A81EE021ABDEEC00ABDEEC11A83ED4F
:104F6000090A83ED0A1ABDE880400120704700BF9E
:104F70000020ACF81A0044F20000C4F21C5001EE0C
:104F8000100A588893ED030A02EE100A44F200005A
:104F9000CCF21C5003EE100A20EE011AB8EE422AA1
:104FA00020EE030A81EE021A80EE020ABDEEC11A5B
:104FB000BDEEC00A83ED091A83ED0A0ABDE8804000
:104FC0000120704770B540F61C02C2F2000240F2A8
:104FD0000513536040F2702340F2102EC2F200031A
:104FE000C2F2000E93ED120A93ED131ADEF80830A8
:104FF00040F2240CC2F2000CBCEEC00A5361DEF891
:105000001030BCF82C4082ED020A9EED030AC2E982
:105010000634BCF82E30BCEEC00A136210EE103A13
:1050200003EB8303DEF800405B00C2E90934DCF8DF
:105030003430DEF80440B3F814E0BCEEC11A90ED51
:10504000020A82ED031AC2E90B4E048890ED041A9D
:105050008088BCEEC00A82ED0F0A1064BCEEC10A63
:10506000088882ED110A91ED020A90648888BCEEEE
:10507000C00A82ED130A91ED040A10651888598858
:10508000B3F816E0C2E916019888D988C2E90DE4A0
:10509000C2E918015889198A9CF80430C2E91A013A
:1050A0009CF800009CF801109CF80540C2E91C0126
:1050B0009CF802009CF803109CF806E09CF807504E
:1050C0009CF808609067DCF84400BCEEC00A82EDF2
:1050D000150AD167C2F88030C2F88440C2F888E06F
:1050E000C2F88C50C2F89060017840F6DC02C2F23F
:1050F000000251808178C0789180D08070BD00BF5F
:1051000080B540F21C4040F2240CC2F20000C2F212
:10511000000CD0F804E0DCF83820DCF84410036A16
:1051200081F801E01381D0E9091390ED0E0A518155
:1051300044F2000190ED0F2A90ED103AC4F21C6188
:1051400001EE101AB8EEC00AB8EEC22AB8EEC33AA1
:1051500080EE010A82EE012A83EE013A90ED124AB6
:105160001380B8EEC44A84EE014AC36A016B5380CF
:10517000DCF83C309180416B90ED145A90ED156A4B
:1051800083ED000AD18083ED012A83ED023ADCF839
:105190004010436CB8EEC55AB8EEC66A85EE015AA7
:1051A00086EE011A0B80C36CDCF8342081ED014AD5
:1051B000ACF84C30D0E92A1311805380D0E92C137D
:1051C0009180D380D0E92E138CED125A1181538136
:1051D000D0E930138CED141A11829382D0E9321386
:1051E000D182D0E9341013835183908380BD0000B5
:1051F000002A08BF7047F0B502F0030C93084FF087
:10520000000215D0A2EB830E4B1C441C6FF003026E
:10521000A518EE789F18FE702E7904323E716E79D3
:105220007E71AD790EEB02060436BD71F0D1043209
:10523000BCF1000F0DD0835CBCF1010F8B5408D082
:10524000531CC75CBCF1020FCF5402D00232805C09
:105250008854BDE8F040704700687047006880B22D
:10526000704700BF44F20001C0F6000188423CBF15
:105270000020704701F5804290423CBF08207047F3
:1052800001F5004290423CBF1020704701F54042BA
:1052900090423CBF1820704701F5E03290423CBF7D
:1052A0002020704701F5703290423CBF28207047A3
:1052B00001F5B82290423CBF3020704701F5F8213B
:1052C000024658208A4238BF382070472DE9F04FF7
:1052D00085B0B0F1006F25D3834610F0030021D1D3
:1052E00016460D46FBF7A2FD0020FBF77DFD4FF6AD
:1052F000FF70C1F6FE7083450BEB860698BFB34581
:1053000014D3B3455DD200BF29685846FCF73EF977
:10531000092856D10BF1040BB34505F10405F3D36D
:105320004FE000BF05B0BDE8F08F00BF44F20007BA
:10533000C0F6000707F5E030049007F570300390E1
:1053400007F5B82007F5804807F5004907F5404AFA
:10535000029007F5F8205C46019002E00434B44264
:10536000CFD220680130F9D0BC4201D2002023E026
:10537000444501D208201FE04C4501D210201BE01B
:10538000544501D2182017E00498844202D220200C
:1053900012E000BF0398844202D228200CE000BF34
:1053A0000298844202D2302006E000BF0198844275
:1053B0004FF0580038BF38200221FBF755FD09286F
:1053C000CDD00120FBF710FD05B0BDE8F04FFBF795
:1053D00041BD00BFB0B544F200050446C0F600056B
:1053E000FBF724FDAC4201D2002029E005F5804006
:1053F000844201D2082023E005F50040844201D216
:1054000010201DE005F54040844201D2182017E02D
:1054100005F5E030844201D2202011E005F570301E
:10542000844201D228200BE005F5B820844201D245
:10543000302005E005F5F82158208C4238BF38208F
:105440000221FBF711FD09281CBF0020B0BDFBF7AE
:1054500001FD0120B0BD00BFB0B572B644F2000539
:105460000446C0F60005FBF7E1FCAC4202D2002086
:105470002AE000BF05F58040844201D2082023E0E5
:1054800005F50040844201D210201DE005F54040A2
:10549000844201D2182017E005F5E030844201D2A1
:1054A000202011E005F57030844201D228200BE065
:1054B00005F5B820844201D2302005E005F5F82139
:1054C00058208C4238BF38200221FBF7CDFC092838
:1054D00004D1FBF7BFFC002062B6B0BD012062B66C
:1054E000B0BD00BF2DE9F04F85B0B0F1006F25D3FE
:1054F000834610F0030021D116460D46FBF796FCBB
:105500000020FBF771FC4FF6FF70C1F6FE7083457B
:105510000BEB860698BFB34516D300BFB34561D2E7
:1055200029685846FCF732F8092858D140200BF179
:10553000040B043500F076FDF0E700BF402005B015
:10554000BDE8F04F00F066BD44F20007C0F600076A
:1055500007F5E030049007F57030039007F5B820A8
:1055600007F5804807F5004907F5404A029007F51E
:10557000F8205C46019002E00434B442CED22068A8
:105580000130F9D0BC4201D2002023E0444501D2D1
:1055900008201FE04C4501D210201BE0544501D2E9
:1055A000182017E00498844202D2202012E000BFA5
:1055B0000398844202D228200CE000BF0298844263
:1055C00002D2302006E000BF019884424FF058001C
:1055D00038BF38200221FBF747FC0928CDD04020F6
:1055E00000F018FD0120FBF7FFFB05B0BDE8F04F10
:1055F000FBF730BC70B5B0F1006F21D3054610F059
:10560000030018BF70BD14460E46FBF70FFC0020C8
:10561000FBF7EAFB281985420BD200BF31782846F8
:10562000FCF7E0F8092804D10135013C06F1010638
:10563000F4D10120FBF7D8FBBDE87040FBF70ABCB2
:1056400070BD00BF002A08BF704710B502F0030C00
:105650005FEA920E4FF0000213D0A1F11003A2EB0B
:105660008E0E00BF0468043A43F8104F4468964514
:105670005C6084689C60C46800F11000DC60F1D15B
:105680005242BCF1000F0ED00368BCF1010F41F88B
:10569000223008D0436801EB82014B60BCF1020F5D
:1056A0001CBF80688860BDE810407047002A08BFB2
:1056B000704710B502F0030C5FEA920E4FF0000243
:1056C00013D0A1F11003A2EB8E0E00BF0468043AC0
:1056D00043F8104F446896455C6084689C60C468D9
:1056E00000F11000DC60F1D15242BCF1000F0ED08D
:1056F0000368BCF1010F41F8223008D0436801EB88
:1057000082014B60BCF1020F1CBF80688860BDE85D
:105710001040704710B540F21C44C2F2000404F17E
:1057200008004FF47E7100F043FD40F2580CC2F2C5
:10573000000CDCF804204FF05A3110890023C4E932
:105740000013206250891188C4E909015088DCF8EF
:105750000810E0629088D28891ED000AC4E90C023A
:1057600044F20000C4F21C6002EE100A91ED011A2E
:1057700020EE020ABDEEC00A84ED0E0A21EE020AF6
:1057800091ED021ADCF80C00BCF81810BDEEC00A4E
:1057900084ED0F0A21EE020A90ED011A0088E164FF
:1057A00040F26811C2F20001606408884A88A0656E
:1057B0008888BDEEC00A84ED100A21EE020A226636
:1057C000CA88A066888ABDEEC00A84ED120A9CEDE4
:1057D000050A9CED071A22676067D1E90B2020EECD
:1057E000020A21EE021AC4E91E02088F4A8FBDEE9A
:1057F000C00ABDEEC11A84ED140A84ED151A91EDAC
:10580000020A91ED031A91ED042AC4E93602888F49
:10581000C98FC4F8E800C4F8F01040F2A811C2F231
:10582000000108884A88C4F880008888C4F8882065
:10583000CA88C4F89000888AC4F89820C4F89C00EC
:10584000D1E90B20BDEEC00AC4F8A000088F84ED9A
:10585000170ABDEEC10AC4F8E000488F84ED190AAA
:10586000BDEEC20A84ED1B0A91ED020A91ED031A06
:1058700091ED042AC4F8A4208A8FC4F8E400C98FEB
:10588000DCF80000C4F8EC20C4F8F4100188428869
:10589000BDEEC00AC4E92A128188C28884ED210ABB
:1058A000C4E92C1201894289BDEEC10AC4E92E1255
:1058B000018A828A84ED230AC4E93012C18A028BEC
:1058C000BDEEC20AC4E93212418B808B84ED250AF9
:1058D000C4E9341010BD00BF10B540F25804C2F244
:1058E0000004206910F8041B11B10021017010BDE3
:1058F0000078012818BF10BDFFF70CFF40F21C41D3
:105900000020C2F20001C0F606004FF48072FFF7DB
:10591000E9FD206904300021017010BDB0B540F2EE
:105920001C45C2F2000528464FF4806100F040FC9F
:105930004FF600400021CFF6FF70C0F6060100BF11
:105940004318D3F800442A18C2F80044D3F804449A
:105950004030C2F80444D3F80844C2F80844D3F8ED
:105960000C44C2F80C44D3F81044C2F81044D3F8E5
:105970001444C2F81444D3F81844C2F81844D3F8B5
:105980001C44C2F81C44D3F82044C2F82044D3F885
:105990002444C2F82444D3F82844C2F82844D3F855
:1059A0002C44C2F82C44D3F83044C2F83044D3F825
:1059B0003444C2F83444D3F83844C2F83844D3F8F5
:1059C0003C34C2F83C34BBD12868B0F15A3F75D1A1
:1059D00040F25800C2F200006A68036941685A70D8
:1059E000D5E9092395ED0E0A4A8144F2000295EDAE
:1059F0000F2A95ED103A95ED124A95ED145A95ED52
:105A0000156AC4F21C6201EE102AB8EEC00AB8EEA4
:105A1000C22AB8EEC33AB8EEC44AB8EEC55AB8EED8
:105A2000C66A80EE010A82EE012A83EE013A84EE14
:105A3000014A85EE015A86EE011AEA6A2C6A4A800A
:105A40002A6B0C818A806A6B0B80CA80C1686A6C81
:105A500083680A80EA6CD0F800C081ED014A0283B5
:105A600080ED055A80ED071AD5E92A0183ED000A79
:105A7000ACF80000ACF80210D5E92C0183ED012A46
:105A8000ACF80400ACF80610D5E92E0183ED023A1B
:105A9000ACF80800ACF80A10D5E93001ACF81000F9
:105AA000ACF81410D5E93201ACF81600D5E934048D
:105AB000ACF81810ACF81A0058E000BF40F25800DB
:105AC000C2F20000016900220A710A60D0E900C137
:105AD0000A24C0F21904D0E902358C604FF0021498
